{
  "contractName": "VotingSystem",
  "abi": [
    {
      "inputs": [],
      "stateMutability": "nonpayable",
      "type": "constructor"
    },
    {
      "anonymous": false,
      "inputs": [
        {
          "indexed": false,
          "internalType": "string",
          "name": "name",
          "type": "string"
        }
      ],
      "name": "CandidateAdded",
      "type": "event"
    },
    {
      "anonymous": false,
      "inputs": [
        {
          "indexed": false,
          "internalType": "address",
          "name": "voter",
          "type": "address"
        },
        {
          "indexed": false,
          "internalType": "string",
          "name": "candidateName",
          "type": "string"
        }
      ],
      "name": "VoteCasted",
      "type": "event"
    },
    {
      "inputs": [
        {
          "internalType": "uint256",
          "name": "",
          "type": "uint256"
        }
      ],
      "name": "candidates",
      "outputs": [
        {
          "internalType": "string",
          "name": "name",
          "type": "string"
        },
        {
          "internalType": "uint256",
          "name": "voteCount",
          "type": "uint256"
        }
      ],
      "stateMutability": "view",
      "type": "function"
    },
    {
      "inputs": [],
      "name": "owner",
      "outputs": [
        {
          "internalType": "address",
          "name": "",
          "type": "address"
        }
      ],
      "stateMutability": "view",
      "type": "function"
    },
    {
      "inputs": [
        {
          "internalType": "address",
          "name": "",
          "type": "address"
        }
      ],
      "name": "voters",
      "outputs": [
        {
          "internalType": "bool",
          "name": "hasVoted",
          "type": "bool"
        },
        {
          "internalType": "uint256",
          "name": "votedCandidateIndex",
          "type": "uint256"
        }
      ],
      "stateMutability": "view",
      "type": "function"
    },
    {
      "inputs": [
        {
          "internalType": "string",
          "name": "_name",
          "type": "string"
        }
      ],
      "name": "addCandidate",
      "outputs": [],
      "stateMutability": "nonpayable",
      "type": "function"
    },
    {
      "inputs": [],
      "name": "ROwner",
      "outputs": [
        {
          "internalType": "address",
          "name": "",
          "type": "address"
        }
      ],
      "stateMutability": "view",
      "type": "function"
    },
    {
      "inputs": [
        {
          "internalType": "uint256",
          "name": "candidateIndex",
          "type": "uint256"
        }
      ],
      "name": "vote",
      "outputs": [],
      "stateMutability": "nonpayable",
      "type": "function"
    },
    {
      "inputs": [],
      "name": "getCandidates",
      "outputs": [
        {
          "components": [
            {
              "internalType": "string",
              "name": "name",
              "type": "string"
            },
            {
              "internalType": "uint256",
              "name": "voteCount",
              "type": "uint256"
            }
          ],
          "internalType": "struct VotingSystem.Candidate[]",
          "name": "",
          "type": "tuple[]"
        }
      ],
      "stateMutability": "view",
      "type": "function"
    },
    {
      "inputs": [
        {
          "internalType": "uint256",
          "name": "candidateIndex",
          "type": "uint256"
        }
      ],
      "name": "getCandidateVotes",
      "outputs": [
        {
          "internalType": "uint256",
          "name": "",
          "type": "uint256"
        }
      ],
      "stateMutability": "view",
      "type": "function"
    }
  ],
  "bytecode": "0x608060405234801561000f575f80fd5b505f80546001600160a01b03191633179055610a428061002e5f395ff3fe608060405234801561000f575f80fd5b5060043610610085575f3560e01c80638312b2cc116100585780638312b2cc146100f0578063866163c0146101145780638da5cb5b14610135578063a3ec138d14610147575f80fd5b80630121b93f1461008957806306a49fce1461009e5780633477ee2e146100bc578063462e91ec146100dd575b5f80fd5b61009c610097366004610610565b61018a565b005b6100a66102f9565b6040516100b3919061066a565b60405180910390f35b6100cf6100ca366004610610565b6103ee565b6040516100b39291906106de565b61009c6100eb366004610713565b6104a3565b5f546001600160a01b03165b6040516001600160a01b0390911681526020016100b3565b610127610122366004610610565b610599565b6040519081526020016100b3565b5f546100fc906001600160a01b031681565b6101736101553660046107be565b60026020525f90815260409020805460019091015460ff9091169082565b6040805192151583526020830191909152016100b3565b335f9081526002602052604090205460ff16156101e75760405162461bcd60e51b8152602060048201526016602482015275165bdd481a185d9948185b1c9958591e481d9bdd195960521b60448201526064015b60405180910390fd5b60015481106102325760405162461bcd60e51b8152602060048201526017602482015276092dcecc2d8d2c840c6c2dcc8d2c8c2e8ca40d2dcc8caf604b1b60448201526064016101de565b60408051808201825260018082526020808301858152335f90815260029092529390209151825460ff191690151517825591519082015580548290811061027b5761027b6107eb565b5f91825260208220600160029092020101805491610298836107ff565b91905055507fb7821d50dfbda5ea310faebbeac5217bc1bb0cabe463e76b80e48d11e57df09833600183815481106102d2576102d26107eb565b905f5260205f2090600202015f016040516102ee92919061085b565b60405180910390a150565b60606001805480602002602001604051908101604052809291908181526020015f905b828210156103e5578382905f5260205f2090600202016040518060400160405290815f8201805461034c90610823565b80601f016020809104026020016040519081016040528092919081815260200182805461037890610823565b80156103c35780601f1061039a576101008083540402835291602001916103c3565b820191905f5260205f20905b8154815290600101906020018083116103a657829003601f168201915b505050505081526020016001820154815250508152602001906001019061031c565b50505050905090565b600181815481106103fd575f80fd5b905f5260205f2090600202015f91509050805f01805461041c90610823565b80601f016020809104026020016040519081016040528092919081815260200182805461044890610823565b80156104935780601f1061046a57610100808354040283529160200191610493565b820191905f5260205f20905b81548152906001019060200180831161047657829003601f168201915b5050505050908060010154905082565b5f546001600160a01b031633146105075760405162461bcd60e51b815260206004820152602260248201527f4f6e6c79206f776e65722063616e20706572666f726d2074686973206163746960448201526137b760f11b60648201526084016101de565b604080518082019091528181525f602082018190526001805480820182559152815160029091027fb10e2d527612073b26eecdfd717e6a320cf44b4afac2b0732d9fcbe2b7fa0cf60190819061055d908261093e565b506020820151816001015550507ff29562dad1599aea0ebb142466120aab326d5efa8f839df82a9c064bf78e8938816040516102ee91906109fa565b6001545f9082106105e65760405162461bcd60e51b8152602060048201526017602482015276092dcecc2d8d2c840c6c2dcc8d2c8c2e8ca40d2dcc8caf604b1b60448201526064016101de565b600182815481106105f9576105f96107eb565b905f5260205f209060020201600101549050919050565b5f60208284031215610620575f80fd5b5035919050565b5f81518084525f5b8181101561064b5760208185018101518683018201520161062f565b505f602082860101526020601f19601f83011685010191505092915050565b5f6020808301818452808551808352604092508286019150828160051b8701018488015f5b838110156106d057888303603f19018552815180518785526106b388860182610627565b91890151948901949094529487019492509086019060010161068f565b509098975050505050505050565b604081525f6106f06040830185610627565b90508260208301529392505050565b634e487b7160e01b5f52604160045260245ffd5b5f60208284031215610723575f80fd5b813567ffffffffffffffff8082111561073a575f80fd5b818401915084601f83011261074d575f80fd5b81358181111561075f5761075f6106ff565b604051601f8201601f19908116603f01168101908382118183101715610787576107876106ff565b8160405282815287602084870101111561079f575f80fd5b826020860160208301375f928101602001929092525095945050505050565b5f602082840312156107ce575f80fd5b81356001600160a01b03811681146107e4575f80fd5b9392505050565b634e487b7160e01b5f52603260045260245ffd5b5f6001820161081c57634e487b7160e01b5f52601160045260245ffd5b5060010190565b600181811c9082168061083757607f821691505b60208210810361085557634e487b7160e01b5f52602260045260245ffd5b50919050565b60018060a01b03831681525f60206040818401525f845461087b81610823565b806040870152606060018084165f811461089c57600181146108b6576108e1565b60ff1985168984015283151560051b8901830195506108e1565b895f52865f205f5b858110156108d95781548b82018601529083019088016108be565b8a0184019650505b50939998505050505050505050565b601f821115610939575f81815260208120601f850160051c810160208610156109165750805b601f850160051c820191505b8181101561093557828155600101610922565b5050505b505050565b815167ffffffffffffffff811115610958576109586106ff565b61096c816109668454610823565b846108f0565b602080601f83116001811461099f575f84156109885750858301515b5f19600386901b1c1916600185901b178555610935565b5f85815260208120601f198616915b828110156109cd578886015182559484019460019091019084016109ae565b50858210156109ea57878501515f19600388901b60f8161c191681555b5050505050600190811b01905550565b602081525f6107e4602083018461062756fea2646970667358221220478f1da2f2722cada48b5490f78cf0f834a0d4e557c7d3105c3a5f4301e233a464736f6c63430008150033",
  "immutableReferences": {},
  "source": "// SPDX-License-Identifier: MIT\r\npragma solidity ^0.8.0;\r\n\r\ncontract VotingSystem {\r\n    address public owner;\r\n\r\n    struct Candidate {\r\n        string name;\r\n        uint256 voteCount;\r\n    }\r\n\r\n    struct Voter {\r\n        bool hasVoted;\r\n        uint256 votedCandidateIndex;\r\n    }\r\n\r\n    Candidate[] public candidates;\r\n    mapping(address => Voter) public voters;\r\n\r\n    event CandidateAdded(string name);\r\n    event VoteCasted(address voter, string candidateName);\r\n\r\n    constructor() {\r\n        owner = msg.sender;\r\n    }\r\n\r\n    modifier onlyOwner() {\r\n        require(msg.sender == owner, \"Only owner can perform this action\");\r\n        _;\r\n    }\r\n\r\n    function addCandidate(string memory _name) public onlyOwner {\r\n        candidates.push(Candidate({name: _name, voteCount: 0}));\r\n        emit CandidateAdded(_name);\r\n    }\r\n    \r\n    \r\n    function ROwner() public view returns (address) {\r\n    return owner; \r\n}\r\n    \r\n\r\n    function vote(uint256 candidateIndex) public {\r\n        require(!voters[msg.sender].hasVoted, \"You have already voted\");\r\n        require(candidateIndex < candidates.length, \"Invalid candidate index\");\r\n\r\n        voters[msg.sender] = Voter({hasVoted: true, votedCandidateIndex: candidateIndex});\r\n        candidates[candidateIndex].voteCount++;\r\n\r\n        emit VoteCasted(msg.sender, candidates[candidateIndex].name);\r\n    }\r\n\r\n    function getCandidates() public view returns (Candidate[] memory) {\r\n        return candidates;\r\n    }\r\n\r\n    function getCandidateVotes(uint256 candidateIndex) public view returns (uint256) {\r\n        require(candidateIndex < candidates.length, \"Invalid candidate index\");\r\n        return candidates[candidateIndex].voteCount;\r\n    }\r\n}\r\n    ",
  "sourcePath": "C:\\Code\\blockChain\\contracts\\SampleContract.sol",
  "compiler": {
    "name": "solc",
    "version": "0.8.21+commit.d9974bed.Emscripten.clang"
  },
  "schemaVersion": "3.4.16",
  "updatedAt": "2025-01-11T14:27:30.571Z",
  "devdoc": {
    "kind": "dev",
    "methods": {},
    "version": 1
  },
  "userdoc": {
    "kind": "user",
    "methods": {},
    "version": 1
  }
}