{
  "contractName": "WholesalerRetailer",
  "abi": [
    {
      "inputs": [],
      "stateMutability": "nonpayable",
      "type": "constructor"
    },
    {
      "anonymous": false,
      "inputs": [
        {
          "indexed": false,
          "internalType": "uint256",
          "name": "productId",
          "type": "uint256"
        },
        {
          "indexed": false,
          "internalType": "string",
          "name": "name",
          "type": "string"
        },
        {
          "indexed": false,
          "internalType": "uint256",
          "name": "price",
          "type": "uint256"
        },
        {
          "indexed": false,
          "internalType": "address",
          "name": "addedBy",
          "type": "address"
        }
      ],
      "name": "ProductAdded",
      "type": "event"
    },
    {
      "anonymous": false,
      "inputs": [
        {
          "indexed": false,
          "internalType": "uint256",
          "name": "productId",
          "type": "uint256"
        },
        {
          "indexed": false,
          "internalType": "address",
          "name": "purchasedBy",
          "type": "address"
        }
      ],
      "name": "ProductPurchased",
      "type": "event"
    },
    {
      "inputs": [],
      "name": "productCounter",
      "outputs": [
        {
          "internalType": "uint256",
          "name": "",
          "type": "uint256"
        }
      ],
      "stateMutability": "view",
      "type": "function",
      "constant": true
    },
    {
      "inputs": [
        {
          "internalType": "uint256",
          "name": "",
          "type": "uint256"
        }
      ],
      "name": "products",
      "outputs": [
        {
          "internalType": "uint256",
          "name": "id",
          "type": "uint256"
        },
        {
          "internalType": "string",
          "name": "name",
          "type": "string"
        },
        {
          "internalType": "uint256",
          "name": "price",
          "type": "uint256"
        },
        {
          "internalType": "address",
          "name": "owner",
          "type": "address"
        },
        {
          "internalType": "bool",
          "name": "isSold",
          "type": "bool"
        }
      ],
      "stateMutability": "view",
      "type": "function",
      "constant": true
    },
    {
      "inputs": [
        {
          "internalType": "address",
          "name": "",
          "type": "address"
        }
      ],
      "name": "registeredRetailers",
      "outputs": [
        {
          "internalType": "bool",
          "name": "",
          "type": "bool"
        }
      ],
      "stateMutability": "view",
      "type": "function",
      "constant": true
    },
    {
      "inputs": [],
      "name": "wholesaler",
      "outputs": [
        {
          "internalType": "address",
          "name": "",
          "type": "address"
        }
      ],
      "stateMutability": "view",
      "type": "function",
      "constant": true
    },
    {
      "inputs": [
        {
          "internalType": "string",
          "name": "_name",
          "type": "string"
        },
        {
          "internalType": "uint256",
          "name": "_price",
          "type": "uint256"
        }
      ],
      "name": "addProduct",
      "outputs": [],
      "stateMutability": "nonpayable",
      "type": "function"
    },
    {
      "inputs": [
        {
          "internalType": "address",
          "name": "_retailer",
          "type": "address"
        }
      ],
      "name": "registerRetailer",
      "outputs": [],
      "stateMutability": "nonpayable",
      "type": "function"
    },
    {
      "inputs": [
        {
          "internalType": "uint256",
          "name": "_productId",
          "type": "uint256"
        }
      ],
      "name": "purchaseProduct",
      "outputs": [],
      "stateMutability": "payable",
      "type": "function",
      "payable": true
    },
    {
      "inputs": [
        {
          "internalType": "uint256",
          "name": "_productId",
          "type": "uint256"
        }
      ],
      "name": "getProduct",
      "outputs": [
        {
          "internalType": "string",
          "name": "",
          "type": "string"
        },
        {
          "internalType": "uint256",
          "name": "",
          "type": "uint256"
        },
        {
          "internalType": "address",
          "name": "",
          "type": "address"
        },
        {
          "internalType": "bool",
          "name": "",
          "type": "bool"
        }
      ],
      "stateMutability": "view",
      "type": "function",
      "constant": true
    },
    {
      "inputs": [
        {
          "internalType": "address",
          "name": "_retailer",
          "type": "address"
        }
      ],
      "name": "isRegisteredRetailer",
      "outputs": [
        {
          "internalType": "bool",
          "name": "",
          "type": "bool"
        }
      ],
      "stateMutability": "view",
      "type": "function",
      "constant": true
    }
  ],
  "bytecode": "0x60806040525f600155348015610013575f80fd5b505f80546001600160a01b03191633179055610bfe806100325f395ff3fe608060405260043610610084575f3560e01c80636c4233b1116100575780636c4233b11461013a5780637acc0b2014610170578063a83006da146101a0578063b15247d9146101bf578063b9db15b4146101de575f80fd5b806308ff342c146100885780631f16653b146100d45780632e1949be146100f757806338e76a0314610125575b5f80fd5b348015610093575f80fd5b506100bf6100a236600461081f565b6001600160a01b03165f9081526003602052604090205460ff1690565b60405190151581526020015b60405180910390f35b3480156100df575f80fd5b506100e960015481565b6040519081526020016100cb565b348015610102575f80fd5b506100bf61011136600461081f565b60036020525f908152604090205460ff1681565b61013861013336600461084c565b61020d565b005b348015610145575f80fd5b505f54610158906001600160a01b031681565b6040516001600160a01b0390911681526020016100cb565b34801561017b575f80fd5b5061018f61018a36600461084c565b610438565b6040516100cb9594939291906108a6565b3480156101ab575f80fd5b506101386101ba36600461081f565b6104fb565b3480156101ca575f80fd5b506101386101d93660046108fa565b61058f565b3480156101e9575f80fd5b506101fd6101f836600461084c565b6106ae565b6040516100cb94939291906109a9565b335f9081526003602052604090205460ff1661028a5760405162461bcd60e51b815260206004820152603160248201527f4f6e6c7920726567697374657265642072657461696c6572732063616e207065604482015270393337b936903a3434b99030b1ba34b7b760791b60648201526084015b60405180910390fd5b5f81815260026020526040902054819081146102e15760405162461bcd60e51b8152602060048201526016602482015275141c9bd91d58dd08191bd95cc81b9bdd08195e1a5cdd60521b6044820152606401610281565b5f828152600260205260409020600301548290600160a01b900460ff16156103425760405162461bcd60e51b8152602060048201526014602482015273141c9bd91d58dd08185b1c9958591e481cdbdb1960621b6044820152606401610281565b5f8381526002602081905260409091209081015434101561039c5760405162461bcd60e51b8152602060048201526014602482015273125b9cdd59999a58da595b9d081c185e5b595b9d60621b6044820152606401610281565b600381018054600160a01b6001600160a81b03199091163360ff60a01b1916171790555f805460028301546040516001600160a01b03909216926108fc8215029290818181858888f193505050501580156103f9573d5f803e3d5ffd5b50604080518581523360208201527f9ad4ecfaf27ea0cbeebee0ed92fe15c8a84975f1e3d45ccfc526d7751dcf98ff910160405180910390a150505050565b60026020525f908152604090208054600182018054919291610459906109e2565b80601f0160208091040260200160405190810160405280929190818152602001828054610485906109e2565b80156104d05780601f106104a7576101008083540402835291602001916104d0565b820191905f5260205f20905b8154815290600101906020018083116104b357829003601f168201915b5050505060028301546003909301549192916001600160a01b0381169150600160a01b900460ff1685565b5f546001600160a01b031633146105245760405162461bcd60e51b815260040161028190610a1a565b6001600160a01b03811661056c5760405162461bcd60e51b815260206004820152600f60248201526e496e76616c6964206164647265737360881b6044820152606401610281565b6001600160a01b03165f908152600360205260409020805460ff19166001179055565b5f546001600160a01b031633146105b85760405162461bcd60e51b815260040161028190610a1a565b60018054905f6105c783610a61565b90915550506040805160a0810182526001805480835260208084018781528486018790525f80546001600160a01b03166060870152608086018190529283526002909152939020825181559251919291908201906106259082610ad3565b5060408281015160028301556060830151600390920180546080909401511515600160a01b026001600160a81b03199094166001600160a01b039093169290921792909217905560015490517f52402cafb2ecec722b103e8f203f83362148c168659dc96678c2c6850d12dd9f916106a291859085903390610b8f565b60405180910390a15050565b5f8181526002602052604081205460609190819081908590811461070d5760405162461bcd60e51b8152602060048201526016602482015275141c9bd91d58dd08191bd95cc81b9bdd08195e1a5cdd60521b6044820152606401610281565b5f60025f8881526020019081526020015f206040518060a00160405290815f8201548152602001600182018054610743906109e2565b80601f016020809104026020016040519081016040528092919081815260200182805461076f906109e2565b80156107ba5780601f10610791576101008083540402835291602001916107ba565b820191905f5260205f20905b81548152906001019060200180831161079d57829003601f168201915b505050918352505060028201546020808301919091526003909201546001600160a01b038116604080840191909152600160a01b90910460ff161515606092830152918301519183015190830151608090930151919a90995091975095509350505050565b5f6020828403121561082f575f80fd5b81356001600160a01b0381168114610845575f80fd5b9392505050565b5f6020828403121561085c575f80fd5b5035919050565b5f81518084525f5b818110156108875760208185018101518683018201520161086b565b505f602082860101526020601f19601f83011685010191505092915050565b85815260a060208201525f6108be60a0830187610863565b6040830195909552506001600160a01b03929092166060830152151560809091015292915050565b634e487b7160e01b5f52604160045260245ffd5b5f806040838503121561090b575f80fd5b823567ffffffffffffffff80821115610922575f80fd5b818501915085601f830112610935575f80fd5b813581811115610947576109476108e6565b604051601f8201601f19908116603f0116810190838211818310171561096f5761096f6108e6565b81604052828152886020848701011115610987575f80fd5b826020860160208301375f602093820184015298969091013596505050505050565b608081525f6109bb6080830187610863565b6020830195909552506001600160a01b039290921660408301521515606090910152919050565b600181811c908216806109f657607f821691505b602082108103610a1457634e487b7160e01b5f52602260045260245ffd5b50919050565b60208082526027908201527f4f6e6c792077686f6c6573616c65722063616e20706572666f726d20746869736040820152661030b1ba34b7b760c91b606082015260800190565b5f60018201610a7e57634e487b7160e01b5f52601160045260245ffd5b5060010190565b601f821115610ace575f81815260208120601f850160051c81016020861015610aab5750805b601f850160051c820191505b81811015610aca57828155600101610ab7565b5050505b505050565b815167ffffffffffffffff811115610aed57610aed6108e6565b610b0181610afb84546109e2565b84610a85565b602080601f831160018114610b34575f8415610b1d5750858301515b5f19600386901b1c1916600185901b178555610aca565b5f85815260208120601f198616915b82811015610b6257888601518255948401946001909101908401610b43565b5085821015610b7f57878501515f19600388901b60f8161c191681555b5050505050600190811b01905550565b848152608060208201525f610ba76080830186610863565b6040830194909452506001600160a01b03919091166060909101529291505056fea264697066735822122087fa66d05204ca495f715469c564d29e5b414c86868cc98c4d2777e44240619964736f6c63430008150033",
  "immutableReferences": {},
  "source": "// SPDX-License-Identifier: MIT\r\npragma solidity ^0.8.0;\r\n\r\ncontract WholesalerRetailer {\r\n    // Struct to represent a product\r\n    struct Product {\r\n        uint256 id;\r\n        string name;\r\n        uint256 price;\r\n        address owner; // Current owner of the product\r\n        bool isSold;   // Tracks if the product is sold\r\n    }\r\n\r\n    // Events\r\n    event ProductAdded(uint256 productId, string name, uint256 price, address addedBy);\r\n    event ProductPurchased(uint256 productId, address purchasedBy);\r\n\r\n    // State variables\r\n    address public wholesaler;\r\n    uint256 public productCounter = 0;\r\n    mapping(uint256 => Product) public products; // productId => Product details\r\n\r\n    // Access control: retailer registration\r\n    mapping(address => bool) public registeredRetailers;\r\n\r\n    // Modifiers\r\n    modifier onlyWholesaler() {\r\n        require(msg.sender == wholesaler, \"Only wholesaler can perform this action\");\r\n        _;\r\n    }\r\n\r\n    modifier onlyRegisteredRetailer() {\r\n        require(registeredRetailers[msg.sender], \"Only registered retailers can perform this action\");\r\n        _;\r\n    }\r\n\r\n    modifier productExists(uint256 _productId) {\r\n        require(products[_productId].id == _productId, \"Product does not exist\");\r\n        _;\r\n    }\r\n\r\n    modifier notSold(uint256 _productId) {\r\n        require(!products[_productId].isSold, \"Product already sold\");\r\n        _;\r\n    }\r\n\r\n    // Constructor to initialize wholesaler\r\n    constructor() {\r\n        wholesaler = msg.sender; // Deploying address is the wholesaler\r\n    }\r\n\r\n    // Wholesaler adds a product to the supply chain\r\n    function addProduct(string memory _name, uint256 _price) public onlyWholesaler {\r\n        productCounter++;\r\n        products[productCounter] = Product({\r\n            id: productCounter,\r\n            name: _name,\r\n            price: _price,\r\n            owner: wholesaler,\r\n            isSold: false\r\n        });\r\n        emit ProductAdded(productCounter, _name, _price, msg.sender);\r\n    }\r\n\r\n    // Wholesaler registers a retailer\r\n    function registerRetailer(address _retailer) public onlyWholesaler {\r\n        require(_retailer != address(0), \"Invalid address\");\r\n        registeredRetailers[_retailer] = true;\r\n    }\r\n\r\n    // Retailer purchases a product\r\n    function purchaseProduct(uint256 _productId) \r\n        public \r\n        payable \r\n        onlyRegisteredRetailer \r\n        productExists(_productId) \r\n        notSold(_productId) \r\n    {\r\n        Product storage product = products[_productId];\r\n\r\n        // Ensure the sent value matches the product price\r\n        require(msg.value >= product.price, \"Insufficient payment\");\r\n\r\n        // Transfer ownership to the retailer\r\n        product.owner = msg.sender;\r\n        product.isSold = true;\r\n\r\n        // Transfer payment to the wholesaler\r\n        payable(wholesaler).transfer(product.price);\r\n\r\n        emit ProductPurchased(_productId, msg.sender);\r\n    }\r\n\r\n    // View details of a product\r\n    function getProduct(uint256 _productId) \r\n        public \r\n        view \r\n        productExists(_productId) \r\n        returns (string memory, uint256, address, bool) \r\n    {\r\n        Product memory product = products[_productId];\r\n        return (product.name, product.price, product.owner, product.isSold);\r\n    }\r\n\r\n    // Check if an address is a registered retailer\r\n    function isRegisteredRetailer(address _retailer) public view returns (bool) {\r\n        return registeredRetailers[_retailer];\r\n    }\r\n}\r\n",
  "sourcePath": "C:\\Code\\blockChain\\contracts\\Test.sol",
  "compiler": {
    "name": "solc",
    "version": "0.8.21+commit.d9974bed.Emscripten.clang"
  },
  "schemaVersion": "3.4.16",
  "updatedAt": "2024-12-23T17:57:33.313Z",
  "networkType": "ethereum",
  "devdoc": {
    "kind": "dev",
    "methods": {},
    "version": 1
  },
  "userdoc": {
    "kind": "user",
    "methods": {},
    "version": 1
  }
}